{
  "contractName": "PrivCA",
  "abi": [
    {
      "inputs": [],
      "stateMutability": "nonpayable",
      "type": "constructor"
    },
    {
      "inputs": [
        {
          "internalType": "string",
          "name": "domain",
          "type": "string"
        },
        {
          "internalType": "string",
          "name": "publicKey",
          "type": "string"
        }
      ],
      "name": "register",
      "outputs": [
        {
          "internalType": "uint256",
          "name": "",
          "type": "uint256"
        }
      ],
      "stateMutability": "nonpayable",
      "type": "function"
    },
    {
      "inputs": [
        {
          "internalType": "string",
          "name": "publicKey",
          "type": "string"
        }
      ],
      "name": "update",
      "outputs": [
        {
          "internalType": "uint256",
          "name": "",
          "type": "uint256"
        }
      ],
      "stateMutability": "nonpayable",
      "type": "function"
    },
    {
      "inputs": [
        {
          "internalType": "uint256",
          "name": "id",
          "type": "uint256"
        }
      ],
      "name": "revoke",
      "outputs": [
        {
          "internalType": "bool",
          "name": "",
          "type": "bool"
        }
      ],
      "stateMutability": "nonpayable",
      "type": "function"
    },
    {
      "inputs": [
        {
          "internalType": "uint256",
          "name": "id",
          "type": "uint256"
        }
      ],
      "name": "get",
      "outputs": [
        {
          "components": [
            {
              "internalType": "string",
              "name": "operation",
              "type": "string"
            },
            {
              "internalType": "string",
              "name": "identity",
              "type": "string"
            },
            {
              "internalType": "string",
              "name": "publicKey",
              "type": "string"
            }
          ],
          "internalType": "struct PrivCA.Transaction",
          "name": "",
          "type": "tuple"
        }
      ],
      "stateMutability": "view",
      "type": "function",
      "constant": true
    }
  ],
  "bytecode": "0x608060405234801561001057600080fd5b50336000806101000a81548173ffffffffffffffffffffffffffffffffffffffff021916908373ffffffffffffffffffffffffffffffffffffffff160217905550336000806101000a81548173ffffffffffffffffffffffffffffffffffffffff021916908373ffffffffffffffffffffffffffffffffffffffff160217905550610c67806100a06000396000f3fe608060405234801561001057600080fd5b506004361061004c5760003560e01c806320c5429b146100515780633d7403a3146100815780633ffbd47f146100b15780639507d39a146100e1575b600080fd5b61006b600480360381019061006691906107a3565b610111565b60405161007891906107eb565b60405180910390f35b61009b6004803603810190610096919061094c565b6101b7565b6040516100a891906109a4565b60405180910390f35b6100cb60048036038101906100c691906109bf565b6102b9565b6040516100d891906109a4565b60405180910390f35b6100fb60048036038101906100f691906107a3565b610407565b6040516101089190610b1d565b60405180910390f35b60008060009054906101000a900473ffffffffffffffffffffffffffffffffffffffff1673ffffffffffffffffffffffffffffffffffffffff163373ffffffffffffffffffffffffffffffffffffffff161461016c57600080fd5b600180549050821061018157600090506101b2565b60016002600084815260200190815260200160002060006101000a81548160ff021916908315150217905550600190505b919050565b60008060405180606001604052806040518060400160405280600681526020017f7570646174650000000000000000000000000000000000000000000000000000815250815260200160405180602001604052806000815250815260200184815250905060018190806001815401808255809150506001900390600052602060002090600302016000909190919091506000820151816000019080519060200190610263929190610695565b506020820151816001019080519060200190610280929190610695565b50604082015181600201908051906020019061029d929190610695565b505050600180805490506102b19190610b6e565b915050919050565b60008060009054906101000a900473ffffffffffffffffffffffffffffffffffffffff1673ffffffffffffffffffffffffffffffffffffffff163373ffffffffffffffffffffffffffffffffffffffff161461031457600080fd5b600060405180606001604052806040518060400160405280600881526020017f72656769737465720000000000000000000000000000000000000000000000008152508152602001858152602001848152509050600181908060018154018082558091505060019003906000526020600020906003020160009091909190915060008201518160000190805190602001906103b0929190610695565b5060208201518160010190805190602001906103cd929190610695565b5060408201518160020190805190602001906103ea929190610695565b505050600180805490506103fe9190610b6e565b91505092915050565b61040f61071b565b6002600083815260200190815260200160002060009054906101000a900460ff16156104aa5760405180606001604052806040518060400160405280600781526020017f7265766f6b6564000000000000000000000000000000000000000000000000008152508152602001604051806020016040528060008152508152602001604051806020016040528060008152508152509050610690565b600182815481106104be576104bd610ba2565b5b90600052602060002090600302016040518060600160405290816000820180546104e790610c00565b80601f016020809104026020016040519081016040528092919081815260200182805461051390610c00565b80156105605780601f1061053557610100808354040283529160200191610560565b820191906000526020600020905b81548152906001019060200180831161054357829003601f168201915b5050505050815260200160018201805461057990610c00565b80601f01602080910402602001604051908101604052809291908181526020018280546105a590610c00565b80156105f25780601f106105c7576101008083540402835291602001916105f2565b820191906000526020600020905b8154815290600101906020018083116105d557829003601f168201915b5050505050815260200160028201805461060b90610c00565b80601f016020809104026020016040519081016040528092919081815260200182805461063790610c00565b80156106845780601f1061065957610100808354040283529160200191610684565b820191906000526020600020905b81548152906001019060200180831161066757829003601f168201915b50505050508152505090505b919050565b8280546106a190610c00565b90600052602060002090601f0160209004810192826106c3576000855561070a565b82601f106106dc57805160ff191683800117855561070a565b8280016001018555821561070a579182015b828111156107095782518255916020019190600101906106ee565b5b509050610717919061073c565b5090565b60405180606001604052806060815260200160608152602001606081525090565b5b8082111561075557600081600090555060010161073d565b5090565b6000604051905090565b600080fd5b600080fd5b6000819050919050565b6107808161076d565b811461078b57600080fd5b50565b60008135905061079d81610777565b92915050565b6000602082840312156107b9576107b8610763565b5b60006107c78482850161078e565b91505092915050565b60008115159050919050565b6107e5816107d0565b82525050565b600060208201905061080060008301846107dc565b92915050565b600080fd5b600080fd5b6000601f19601f8301169050919050565b7f4e487b7100000000000000000000000000000000000000000000000000000000600052604160045260246000fd5b61085982610810565b810181811067ffffffffffffffff8211171561087857610877610821565b5b80604052505050565b600061088b610759565b90506108978282610850565b919050565b600067ffffffffffffffff8211156108b7576108b6610821565b5b6108c082610810565b9050602081019050919050565b82818337600083830152505050565b60006108ef6108ea8461089c565b610881565b90508281526020810184848401111561090b5761090a61080b565b5b6109168482856108cd565b509392505050565b600082601f83011261093357610932610806565b5b81356109438482602086016108dc565b91505092915050565b60006020828403121561096257610961610763565b5b600082013567ffffffffffffffff8111156109805761097f610768565b5b61098c8482850161091e565b91505092915050565b61099e8161076d565b82525050565b60006020820190506109b96000830184610995565b92915050565b600080604083850312156109d6576109d5610763565b5b600083013567ffffffffffffffff8111156109f4576109f3610768565b5b610a008582860161091e565b925050602083013567ffffffffffffffff811115610a2157610a20610768565b5b610a2d8582860161091e565b9150509250929050565b600081519050919050565b600082825260208201905092915050565b60005b83811015610a71578082015181840152602081019050610a56565b83811115610a80576000848401525b50505050565b6000610a9182610a37565b610a9b8185610a42565b9350610aab818560208601610a53565b610ab481610810565b840191505092915050565b60006060830160008301518482036000860152610adc8282610a86565b91505060208301518482036020860152610af68282610a86565b91505060408301518482036040860152610b108282610a86565b9150508091505092915050565b60006020820190508181036000830152610b378184610abf565b905092915050565b7f4e487b7100000000000000000000000000000000000000000000000000000000600052601160045260246000fd5b6000610b798261076d565b9150610b848361076d565b925082821015610b9757610b96610b3f565b5b828203905092915050565b7f4e487b7100000000000000000000000000000000000000000000000000000000600052603260045260246000fd5b7f4e487b7100000000000000000000000000000000000000000000000000000000600052602260045260246000fd5b60006002820490506001821680610c1857607f821691505b602082108103610c2b57610c2a610bd1565b5b5091905056fea2646970667358221220abe6bbad5bcc4df12a79e17d21a7b2ea071777191ed8285ad130bace3b8ab3d464736f6c634300080d0033",
  "immutableReferences": {},
  "source": "// SPDX-License-Identifier: MIT\r\n// Tells the Solidity compiler to compile only from v0.8.13 to v0.9.0\r\npragma solidity ^0.8.13;\r\n\r\nimport \"./owned.sol\";\r\n// This is just a simple example of a coin-like contract.\r\n// It is not ERC20 compatible and cannot be expected to talk to other\r\n// coin/token contracts.\r\n\r\ncontract PrivCA is Owned {\r\n\tTransaction[] private transactions;\r\n\tmapping (uint => bool) private revocations;\r\n\r\n\tstruct Transaction {\r\n\t\tstring operation;\r\n\t\tstring identity;\r\n        string publicKey;\r\n\t\t// add more props later\r\n    }\r\n\r\n\tconstructor() {\r\n\t\towner = msg.sender;\r\n\t}\r\n\r\n\t// CA validates identity and verifies registration, then calls register\r\n\tfunction register(string memory domain, string memory publicKey) public onlyOwner returns(uint){\r\n\t\tTransaction memory tr = Transaction(\"register\", domain, publicKey);\r\n\t\ttransactions.push(tr);\r\n\r\n\t\treturn transactions.length - 1;\r\n\t}\r\n\r\n\t// Anyone can post updates, this will be used in certificate verification\r\n\tfunction update(string memory publicKey) public returns(uint){\r\n\t\t// add more pushed info later\r\n\t\tTransaction memory tr = Transaction(\"update\", \"\", publicKey);\r\n\t\ttransactions.push(tr);\r\n\r\n\t\treturn transactions.length - 1;\r\n\t}\r\n\r\n\t// CA can revoke certain transactions, users can request CA to revoke\r\n\tfunction revoke(uint id) public onlyOwner returns(bool){\r\n\t\tif (id >= transactions.length) return false;\r\n\t\trevocations[id] = true;\r\n\t\treturn true;\r\n\t} \r\n\r\n\tfunction get(uint id) public view returns(Transaction memory){\r\n\t\tif (revocations[id]) return Transaction(\"revoked\", \"\", \"\");\r\n\t\treturn transactions[id];\r\n\t}\r\n}\r\n",
  "sourcePath": "D:\\Github\\privacy-blockchain-pki\\smart_contract\\contracts\\PrivCA.sol",
  "compiler": {
    "name": "solc",
    "version": "0.8.13+commit.abaa5c0e.Emscripten.clang"
  },
  "schemaVersion": "3.4.16",
  "updatedAt": "2024-03-24T14:41:05.088Z",
  "networkType": "ethereum",
  "devdoc": {
    "kind": "dev",
    "methods": {},
    "version": 1
  },
  "userdoc": {
    "kind": "user",
    "methods": {},
    "version": 1
  }
}